:100000000C9462000C948A000C948A000C948A0070
:100010000C948A000C948A000C948A000C948A0038
:100020000C948A000C948A000C948A000C948A0028
:100030000C948A000C948A000C948A000C948A0018
:100040000C94EF020C948A000C94BC050C940A06E4
:100050000C948A000C948A000C948A000C948A00F8
:100060000C948A000C948A000000000024002700F1
:100070002A0000000000250028002B0000000000DE
:1000800023002600290004040404040404040202DA
:100090000202020203030303030301020408102007
:1000A0004080010204081020010204081020000012
:1000B0000007000201000003040600000000000029
:1000C0000000780711241FBECFEFD8E0DEBFCDBF00
:1000D00011E0A0E0B1E0E4EAF9E102C005900D9280
:1000E000A835B107D9F712E0A8E5B1E001C01D922B
:1000F000AA31B107E1F710E0C4ECD0E004C02297C8
:10010000FE010E94CC0CC23CD107C9F70E94CE0769
:100110000C94D00C0C9400006F927F928F929F925F
:10012000AF92BF92CF92DF92EF92FF920F931F9305
:1001300087E061E028EA31E640E050E00E941F05D8
:100140000E94510B609343017093440180934501D9
:100150009093460120E030E84BEB54E40E94030CFE
:1001600018160CF06FC18CE00E94CC04892B09F4A6
:10017000E5C085E061E028EA31E640E050E00E9419
:100180001F050E94510B60933B0170933C018093CB
:100190003D0190933E0186E061E028EA31E640E0CF
:1001A00050E00E941F050E94510B4B015C01C09062
:1001B0003B01D0903C01E0903D01F0903E01C70131
:1001C000B60120E030EC48EA54E40E94B40A8823E7
:1001D0005CF40F2EF0E0CF2EF0ECDF2EF8EAEF2EDD
:1001E000F4E4FF2EF02D14C0C701B60120E030EC7E
:1001F00041EC54E40E94030C181654F40F2EF0E066
:10020000CF2EF0ECDF2EF1ECEF2EF4E4FF2EF02DEC
:10021000C0923B01D0923C01E0923D01F0923E0140
:10022000C501B40120E030EC48EA54E40E94B40A6D
:1002300088235CF40F2EF0E08F2EF0EC9F2EF8EA6E
:10024000AF2EF4E4BF2EF02D14C0C501B40120E0A0
:1002500030EC41EC54E40E94030C181654F40F2EB9
:10026000F0E08F2EF0EC9F2EF1ECAF2EF4E4BF2ED9
:10027000F02D80923F0190924001A0924101B092F6
:10028000420100D000D00DB71EB70F5F1F4FC7014E
:10029000B6010E94200BBFE46B2E712C812C912C97
:1002A000F801608271828282938226E435E040E028
:1002B00050E0AEE0EA2EA6E0FA2E012D112DF2EC70
:1002C000AF2EB12CC12CD12C0E94060A0E94530BD8
:1002D00060935F017093600180936101909362016C
:1002E0000DB71EB70F5F1F4F60913F017091400126
:1002F00080914101909142010E94200BF80160829F
:1003000071828282938226E435E040E050E0EEE0A4
:10031000EE2EE6E0FE2E012D112D0E94060A0E940F
:10032000530B609363017093640180936501909314
:1003300066010F900F900F900F90A0C080E2809305
:100340005E0188EF91E00E94CC061816190684F42D
:100350001092590106C088EF91E00E94FD0680933B
:100360005E0188EF91E00E94CC06892BA1F740C086
:1003700080915901882381F481E0809359010E9482
:1003800037030E94510B60935A0170935B01809375
:100390005C0190935D012CC00E9437030E94510BB9
:1003A00020915A0130915B0140915C0150915D01B7
:1003B0000E944F0A20E030E048E453E40E94030C1E
:1003C0001816B4F41092580180E090E0A5E0B3E470
:1003D00080935F0190936001A0936101B0936201EB
:1003E0008093630190936401A0936501B0936601CB
:1003F00080915E01823579F083353CF4863459F082
:100400008C3449F08234D1F506C08A3521F08A3720
:1004100011F0833599F51092580180E090E0A5E045
:10042000B3E480935F0190936001A0936101B09366
:1004300062018093630190936401A0936501B0937E
:1004400066011CC01092580180E090E0A5E0B3E482
:1004500080935F0190936001A0936101B09362016A
:100460008093630190936401A0936501B09366014A
:1004700088EF91E060E071E00E94F30960915F0114
:100480007091600180916101909162010E94200B46
:100490009B01AC0183E0B9010E94D9036091630123
:1004A0007091640180916501909166010E94200B1A
:1004B0009B01AC018BE0B9010E94D90388E06091F7
:1004C00058010E94780488EF91E06CE171E00E948D
:1004D000F60840913B0150913C0160913D017091C3
:1004E0003E0188EF91E022E030E00E94DD0988EFD4
:1004F00091E064E271E00E94F60840913F01509162
:100500004001609141017091420188EF91E022E049
:1005100030E00E94E00964E170E080E090E00E9439
:1005200045031F910F91FF90EF90DF90CF90BF9008
:10053000AF909F908F907F906F90089588EF91E09B
:1005400040E855E260E070E00E94450688EF91E0E7
:100550000E9476078823D1F383E061E00E9439048A
:100560008BE061E00E94390488E061E00E94390478
:1005700082E061E00E94390485E060E00E94390475
:1005800086E060E00E94390487E060E00E94390460
:1005900084E060E00E9439048CE060E00E9439044D
:1005A00082E060E00E94780483E065E870E00E94E9
:1005B000D9038BE065E870E00E94D90368EB7BE02B
:1005C00080E090E00E94450382E061E00E947804B0
:1005D00068EE73E080E090E00E94450308951F926A
:1005E0000F920FB60F9211242F933F938F939F93E7
:1005F000AF93BF9380916B0190916C01A0916D01BD
:10060000B0916E0130916F010196A11DB11D232F94
:100610002D5F2D3720F02D570196A11DB11D209380
:100620006F0180936B0190936C01A0936D01B09367
:100630006E018091670190916801A0916901B0916C
:100640006A010196A11DB11D809367019093680115
:10065000A0936901B0936A01BF91AF919F918F916F
:100660003F912F910F900FBE0F901F9018958FB74D
:10067000F89420916B0130916C0140916D01509183
:100680006E018FBFB901CA0108959B01AC017FB70C
:10069000F8948091670190916801A0916901B091EF
:1006A0006A0166B5A89B05C06F3F19F00196A11DB0
:1006B000B11D7FBFBA2FA92F982F8827860F911DB4
:1006C000A11DB11D62E0880F991FAA1FBB1F6A956B
:1006D000D1F7BC012DC0FFB7F894809167019091CC
:1006E0006801A0916901B0916A01E6B5A89B05C0B7
:1006F000EF3F19F00196A11DB11DFFBFBA2FA92F21
:10070000982F88278E0F911DA11DB11DE2E0880F43
:10071000991FAA1FBB1FEA95D1F7861B970B885E0E
:100720009340C8F2215030404040504068517C4FC7
:10073000211531054105510571F60895789484B568
:10074000826084BD84B5816084BD85B5826085BDCD
:1007500085B5816085BDEEE6F0E0808181608083B3
:10076000E1E8F0E010828081826080838081816096
:100770008083E0E8F0E0808181608083E1EBF0E05D
:10078000808184608083E0EBF0E080818160808301
:10079000EAE7F0E0808184608083808182608083EA
:1007A0008081816080838081806880831092C10015
:1007B00008951F93CF93DF93182FEB0161E00E9400
:1007C0003904209709F44AC0CF3FD10509F449C044
:1007D000E12FF0E0E255FF4F84918330C1F0843087
:1007E00028F4813051F08230B1F50CC0863019F117
:1007F000873049F1843079F514C084B5806884BDB0
:10080000C7BD33C084B5806284BDC8BD2EC0809191
:100810008000806880938000D0938900C093880016
:1008200024C080918000806280938000D0938B00F0
:10083000C0938A001AC08091B00080688093B00095
:10084000C093B30012C08091B00080628093B0006A
:10085000C093B4000AC0C038D1051CF4812F60E0F9
:1008600002C0812F61E00E947804DF91CF911F9137
:100870000895CF93DF93482F50E0CA0186569F4FCB
:10088000FC0134914A575F4FFA018491882369F142
:1008900090E0880F991FFC01E859FF4FA591B49192
:1008A000FC01EE58FF4FC591D491662351F42FB748
:1008B000F8948C91932F909589238C938881892328
:1008C0000BC0623061F42FB7F8948C91932F909500
:1008D00089238C938881832B88832FBF06C09FB781
:1008E000F8948C91832B8C939FBFDF91CF910895C7
:1008F000482F50E0CA0182559F4FFC012491CA0144
:1009000086569F4FFC0194914A575F4FFA013491EC
:10091000332309F440C0222351F1233071F02430F5
:1009200028F42130A1F0223011F514C02630B1F0A6
:100930002730C1F02430D9F404C0809180008F7733
:1009400003C0809180008F7D8093800010C084B5AB
:100950008F7702C084B58F7D84BD09C08091B000BF
:100960008F7703C08091B0008F7D8093B000E32F1C
:10097000F0E0EE0FFF1FEE58FF4FA591B4912FB797
:10098000F894662321F48C919095892302C08C9170
:10099000892B8C932FBF0895682F70E0CB0182556F
:1009A0009F4FFC012491CB0186569F4FFC0144913F
:1009B0006A577F4FFB019491992319F420E030E0AE
:1009C0003CC0222351F1233071F0243028F421302F
:1009D000A1F0223011F514C02630B1F02730C1F05B
:1009E0002430D9F404C0809180008F7703C08091B7
:1009F00080008F7D8093800010C084B58F7702C007
:100A000084B58F7D84BD09C08091B0008F7703C00D
:100A10008091B0008F7D8093B000892F90E0880F87
:100A2000991F84589F4FFC01A591B4918C9120E0AF
:100A300030E0842311F021E030E0C90108958F9265
:100A40009F92AF92BF92CF92DF92EF92FF920F935D
:100A50001F93CF93DF93A82FB0E0CD0186569F4F11
:100A6000FC018490AA57BF4FFD018491662311F4C5
:100A7000992401C0982C6FEFA62E6FEFB62E6FEF62
:100A8000C62E6FE0D62EA222B322C422D522682F12
:100A900070E0660F771F64587F4FEE24FF248701B4
:100AA000FB01A591B4910BC0EA14FB040C051D05D4
:100AB00009F44EC00894E11CF11C011D111D8C911C
:100AC0008821891589F30CC0EA14FB040C051D0567
:100AD00009F43EC00894E11CF11C011D111D03C066
:100AE000FB01A591B4918C918821891569F720E0CB
:100AF00030E040E050E0FB01C591D4910FC0DA0135
:100B0000C9018E0D9F1DA01FB11F8A159B05AC0545
:100B1000BD05F1F02F5F3F4F4F4F5F4F8881882118
:100B2000891569F3CA01B90125E130E040E050E0E0
:100B30000E946E0C9B01AC01205F3F4F4F4F5F4FF7
:100B400084E056954795379527958A95D1F704C047
:100B500020E030E040E050E0B901CA01DF91CF91E0
:100B60001F910F91FF90EF90DF90CF90BF90AF90CB
:100B70009F908F90089508951F920F920FB60F9235
:100B800011242F933F934F938F939F93EF93FF9352
:100B90008091C00082FD1DC04091C6002091B0012F
:100BA0003091B1012F5F3F4F2F7330708091B201B0
:100BB0009091B3012817390771F0E091B001F091DD
:100BC000B101E059FE4F40833093B1012093B00151
:100BD00002C08091C600FF91EF919F918F914F913C
:100BE0003F912F910F900FBE0F901F901895E0919D
:100BF0000402F0910502E05CFF4F81919191208108
:100C00003181821B930B8F739070892B11F00E949E
:100C1000BB0508951F920F920FB60F9211242F93C8
:100C20003F938F939F93EF93FF932091F401309123
:100C3000F5018091F6019091F7012817390731F4F9
:100C40008091C1008F7D8093C10014C0E091F601B6
:100C5000F091F701EC54FE4F20818091F6019091C4
:100C6000F70101968F7390709093F7018093F601CE
:100C70002093C600FF91EF919F918F913F912F910B
:100C80000F900FBE0F901F901895AF92BF92DF92FA
:100C9000EF92FF920F931F93CF93DF93EC017A01B2
:100CA0008B01DD24403081EE580780E0680780E04A
:100CB000780711F0DD24D39491E0A92EB12CEC89B2
:100CC000FD89DD2069F0C50108A002C0880F991FC9
:100CD0000A94E2F7808360E079E08DE390E005C05C
:100CE000108260E874E88EE190E0A80197010E940C
:100CF0008D0C2150304040405040569547953795D7
:100D0000279580E12030380720F0DD2011F0DD2428
:100D1000D6CFE889F9893083EA89FB89208319A233
:100D2000EE89FF89408121E030E0C9010C8C02C0CE
:100D3000880F991F0A94E2F7482B4083EE89FF89B8
:100D40004081C9010D8C02C0880F991F0A94E2F7F7
:100D5000482B4083EE89FF894081C9010E8C02C077
:100D6000880F991F0A94E2F7482B4083EE89FF8988
:100D700080810F8C02C0220F331F0A94E2F7209566
:100D800028232083DF91CF911F910F91FF90EF9047
:100D9000DF90BF90AF900895DC011C96ED91FC911F
:100DA0001D97E05CFF4F2191319180819181281B3B
:100DB000390B2F733070C9010895DC011C96ED9139
:100DC000FC911D97E05CFF4F20813181E054F040A1
:100DD000DF01AE5BBF4F8D919C91119728173907AA
:100DE00019F42FEF3FEF07C08D919C91E80FF91F89
:100DF0008081282F30E0C9010895DC011C96ED9117
:100E0000FC911D97E05CFF4F20813181E054F04060
:100E1000DF01AE5BBF4F8D919C9111972817390769
:100E200019F42FEF3FEF10C08D919C911197E80FAF
:100E3000F91F20818D919C91119701968F7390706D
:100E400011969C938E9330E0C9010895DC01919630
:100E50008C919197882339F05496ED91FC91559798
:100E6000808186FFF9CF91961C920895CF93DF93EE
:100E7000EC01EE85FF85E05CFF4F20813181E0547D
:100E8000F0402F5F3F4F2F733070DF01AE5BBF4FDD
:100E90008D919C91119728173907D1F3E05CFF4F92
:100EA00080819181E054F040E80FF91F6083EE8566
:100EB000FF85E05CFF4F31832083EE89FF8920812D
:100EC00081E090E00F8C02C0880F991F0A94E2F72E
:100ED000282B208381E089A3EC89FD8980818064AF
:100EE000808381E090E0DF91CF91089581E00895C3
:100EF0001092FB011092FA0188EE93E0A0E0B0E0BE
:100F00008093FC019093FD01A093FE01B093FF013B
:100F10008BE491E09093F9018093F80180E791E0F0
:100F2000909305028093040284EB91E09093070272
:100F30008093060285EC90E090930902809308026A
:100F400084EC90E090930B0280930A0280EC90E096
:100F500090930D0280930C0281EC90E090930F022D
:100F600080930E0282EC90E0909311028093100225
:100F700086EC90E0909313028093120284E08093B9
:100F8000140283E08093150287E08093160285E0C7
:100F90008093170281E0809318020895CF93DF9326
:100FA0000E949E030E949E02C7EFD5E00E948C0023
:100FB0002097E1F30E94F705F9CFCF92DF92EF92ED
:100FC000FF920F931F93CF93DF937C016B018A01F4
:100FD000C0E0D0E00FC0D6016D916D01D701ED9159
:100FE000FC910190F081E02DC7010995C80FD91F30
:100FF000015010400115110571F7CE01DF91CF911D
:101000001F910F91FF90EF90DF90CF900895EF9296
:10101000FF920F931F938C01DC01ED91FC910190E5
:10102000F081E02D6DE009957C01D801ED91FC91F6
:101030000190F081E02DC8016AE009959C012E0D18
:101040003F1DC9011F910F91FF90EF900895CF931D
:10105000DF93EC016115710519F420E030E00FC059
:10106000DB010D900020E9F71197A61BB70BE88173
:10107000F9810280F381E02DAD0109959C01C90140
:10108000DF91CF9108954F925F927F928F929F92BE
:10109000AF92BF92CF92DF92EF92FF920F931F9386
:1010A000DF93CF93CDB7DEB7A1970FB6F894DEBF2D
:1010B0000FBECDBF2C01742ECB01223008F42AE0E4
:1010C00019A231E2C32ED12CCC0EDD1E822E992422
:1010D000AA24BB24672D752FA50194010E948D0CB5
:1010E00079018A01C801B701A50194010E946E0C23
:1010F000472D461B0894C108D1084A3014F4405DBE
:1011000001C0495CF6014083E114F10401051105B9
:1011100021F07E2C5F2DC801DDCFC201B6010E94F7
:101120002708A1960FB6F894DEBF0FBECDBFCF91B2
:10113000DF911F910F91FF90EF90DF90CF90BF90C4
:10114000AF909F908F907F905F904F900895DC01BB
:101150002115310541F4ED91FC910190F081E02DD4
:10116000642F099508950E9443080895CF92DF9255
:10117000EF92FF920F931F93CF93DF93EC016A01DD
:101180007B012115310541F4E881F9810190F0815D
:10119000E02D642F09951FC02A303105D1F477FF67
:1011A00017C0E881F9810190F081E02D6DE2099589
:1011B0008C0144275527BA014C195D096E097F0936
:1011C000CE012AE00E9443089801280F391F04C06D
:1011D0002AE00E9443089C01C901DF91CF911F9131
:1011E0000F91FF90EF90DF90CF9008950E94270815
:1011F00008957F928F929F92AF92BF92CF92DF928B
:10120000EF92FF920F931F93CF93DF934C017A01DC
:101210008B01722ECB01BA01A80197010E946A0CC2
:10122000882321F0C4016DE271E021C0C0E0D0E06C
:1012300057016801E894D7F8C601B5012FEF3FEFD9
:101240004FE75FE70E946A0C882351F4C601B5019D
:101250002FEF3FEF4FE75FE70E94B40A181614F034
:10126000C1E0D0E0219739F0C40161E371E00E9450
:101270002708EC0193C0C801B7012FEF3FEF4FE7FC
:101280005FE40E94030C181654F0C801B7012FEF59
:101290003FEF4FE75FEC0E94B40A882324F4C401B7
:1012A00065E371E0E4CFC801B70120E030E040E041
:1012B00050E00E94B40A87FD03C0C0E0D0E00EC039
:1012C000D401ED91FC910190F081E02DC4016DE21B
:1012D0000995EC0117FB109517F9109520E030E007
:1012E00040E05FE3DD240BC0CA01B90120E030E03B
:1012F00040E251E40E94B80A9B01AC01D394D71498
:1013000098F3C801B7010E94500A5B016C010E946A
:10131000250B7B018C01C401B801A7012AE030E054
:101320000E94A708C80FD91F772039F0C40169E3CC
:1013300071E00E942708C80FD91FC801B7010E9499
:10134000510B9B01AC01C601B5010E944F0A24C09C
:1013500020E030E040E251E40E94070C7B018C0168
:101360000E94200B5B016C01CC24B7FCC094DC2CE8
:10137000C401B601A5012AE030E00E94B608C80FFA
:10138000D91FC601B5010E94530B9B01AC01C801D6
:10139000B7010E944F0A7A947720D1F6CE01DF91EF
:1013A000CF911F910F91FF90EF90DF90CF90BF9062
:1013B000AF909F908F907F9008950E94F9080895B4
:1013C000EF92FF920F931F937C010E94F9088C010A
:1013D000C7010E940708080F191FC8011F910F912C
:1013E000FF90EF900895EF92FF920F931F937C016F
:1013F0000E9427088C01C7010E940708080F191FC7
:10140000C8011F910F91FF90EF9008952F923F9286
:101410004F925F926F927F928F929F92AF92BF9204
:10142000CF92DF92EF92FF920F931F93DF93CF93B0
:10143000CDB7DEB73B014C0119012A016D897E89C8
:101440008F89988D6A197B098C099D09621A730A24
:10145000840A950AA40193010E946E0CE218F30815
:1014600004091509A80197010E94AF0C2A0D3B1D24
:101470004C1D5D1DB901CA01CF91DF911F910F91E4
:10148000FF90EF90DF90CF90BF90AF909F908F90A4
:101490007F906F905F904F903F902F90089550589D
:1014A000BB27AA270ED075C166D130F06BD120F0D2
:1014B00031F49F3F11F41EF45BC10EF4E095E7FB9D
:1014C00051C1E92F77D180F3BA17620773078407F8
:1014D000950718F071F49EF58FC10EF4E0950B2E70
:1014E000BA2FA02D0B01B90190010C01CA01A00176
:1014F0001124FF27591B99F0593F50F4503E68F1D1
:101500001A16F040A22F232F342F4427585FF3CF11
:10151000469537952795A795F0405395C9F77EF4E2
:101520001F16BA0B620B730B840BBAF09150A1F02B
:10153000FF0FBB1F661F771F881FC2F70EC0BA0FB1
:10154000621F731F841F48F4879577956795B79539
:10155000F7959E3F08F0B3CF9395880F08F0992731
:10156000EE0F979587950895D9D008F481E00895F6
:101570000CD00FC107D140F0FED030F021F45F3F16
:1015800019F0F0C0511139C1F3C014D198F3992367
:10159000C9F35523B1F3951B550BBB27AA27621737
:1015A0007307840738F09F5F5F4F220F331F441F7C
:1015B000AA1FA9F333D00E2E3AF0E0E830D09150B4
:1015C0005040E695001CCAF729D0FE2F27D0660FA1
:1015D000771F881FBB1F261737074807AB07B0E8E0
:1015E00009F0BB0B802DBF01FF2793585F4F2AF0F6
:1015F0009E3F510568F0B6C000C15F3FECF3983ED6
:10160000DCF3869577956795B795F7959F5FC9F752
:10161000880F911D9695879597F90895E1E0660FDB
:10162000771F881FBB1F621773078407BA0720F054
:10163000621B730B840BBA0BEE1F88F7E0950895BD
:1016400004D06894B111D9C00895BCD088F09F57D8
:1016500090F0B92F9927B751A0F0D1F0660F771FFE
:10166000881F991F1AF0BA95C9F712C0B13081F0DE
:10167000C3D0B1E00895C0C0672F782F8827B85F26
:1016800039F0B93FCCF3869577956795B395D9F73F
:101690003EF490958095709561957F4F8F4F9F4F49
:1016A0000895E89409C097FB3EF490958095709555
:1016B00061957F4F8F4F9F4F9923A9F0F92F96E99E
:1016C000BB279395F695879577956795B795F11113
:1016D000F8CFFAF4BB0F11F460FF1BC06F5F7F4FB0
:1016E0008F4F9F4F16C0882311F096E911C07723C2
:1016F00021F09EE8872F762F05C0662371F096E8CB
:10170000862F70E060E02AF09A95660F771F881F99
:10171000DAF7880F9695879597F90895990F00083D
:10172000550FAA0BE0E8FEEF16161706E807F907B3
:10173000C0F012161306E407F50798F0621B730B4E
:10174000840B950B39F40A2661F0232B242B252BCF
:1017500021F408950A2609F4A140A6958FEF811D72
:10176000811D089597F99F6780E870E060E0089513
:101770009FEF80EC089500240A94161617061806A9
:101780000906089500240A94121613061406050685
:101790000895092E0394000C11F4882352F0BB0F16
:1017A00040F4BF2B11F460FF04C06F5F7F4F8F4F79
:1017B0009F4F089557FD9058440F551F59F05F3FB4
:1017C00071F04795880F97FB991F61F09F3F79F063
:1017D00087950895121613061406551FF2CF4695E5
:1017E000F1DF08C0161617061806991FF1CF869567
:1017F0007105610508940895E894BB27662777274B
:10180000CB0197F908958ADF08F48FEF08950BD084
:10181000C0CFB1DF28F0B6DF18F0952309F0A2CFD2
:10182000A7CF1124EACFC6DFA0F3959FD1F3950F80
:1018300050E0551F629FF001729FBB27F00DB11D54
:10184000639FAA27F00DB11DAA1F649F6627B00DE4
:10185000A11D661F829F2227B00DA11D621F739FCD
:10186000B00DA11D621F839FA00D611D221F749FDB
:101870003327A00D611D231F849F600D211D822F22
:10188000762F6A2F11249F5750408AF0E1F0882369
:101890004AF0EE0FFF1FBB1F661F771F881F915076
:1018A0005040A9F79E3F510570F05CCFA6CF5F3F37
:1018B000ECF3983EDCF3869577956795B795F795A9
:1018C000E7959F5FC1F7FE2B880F911D9695879531
:1018D00097F9089523DF880B990B0895629FD00133
:1018E000739FF001829FE00DF11D649FE00DF11DDB
:1018F000929FF00D839FF00D749FF00D659FF00D8A
:101900009927729FB00DE11DF91F639FB00DE11D76
:10191000F91FBD01CF0111240895A1E21A2EAA1BBF
:10192000BB1BFD010DC0AA1FBB1FEE1FFF1FA2178F
:10193000B307E407F50720F0A21BB30BE40BF50B8C
:10194000661F771F881F991F1A9469F76095709515
:10195000809590959B01AC01BD01CF01089597FB47
:10196000092E05260ED057FD04D0D7DF0AD0001C63
:1019700038F450954095309521953F4F4F4F5F4F2C
:101980000895F6F790958095709561957F4F8F4FEC
:101990009F4F0895EE0FFF1F0590F491E02D0994DD
:0419A000F894FFCFE9
:1019A4002A2A2A2A20456E61626C65205369676E73
:1019B400616C206C6F73742A2A2A2A006C65667421
:1019C400203D20007269676874203D20006E616EBE
:1019D40000696E66006F7666002E000080BB4400CE
:1019E40080BB440080BB44000000003607DD07CC08
:0819F40006FD06DD06260700D2
:00000001FF
